:100000000C94F0020C9437030C9437030C943703D0
:100010000C9437030C9437030C9437030C94370378
:100020000C9437030C9437030C94DE260C949A2618
:100030000C94D9270C9437030C9437030C94370392
:100040000C9437030C9437030C9437030C94370348
:100050000C9437030C94B5270C9437030C94370396
:100060000C9437030C9437030C9437030C94370328
:100070000C9437030C9437030C9437030C94370318
:100080000C9437030C9437030C9437030C94370308
:100090000C9437030C9437030C9437030C943703F8
:1000A0000C9437030C9437030C94370305010902B1
:1000B000A10185020901A100050919012905150001
:1000C00025019505750181029501750381010501E1
:1000D000093009311581257F950275088106093897
:1000E0001581257F950175088106050C0A380215D2
:1000F00081257F950175088106C0C005010980A191
:1001000001850319012AB700150126B7009501756D
:10011000108100C0050C0901A101850419012AA064
:1001200002150126A002950175108100C00660FF2E
:100130000961A1010962150026FF0095207508815B
:10014000020963150026FF00952075089102C0057D
:10015000010906A101050719E029E7150025019508
:1001600008750181029501750881010507190029AB
:10017000FF150026FF009506750881000508190186
:100180002905950575019102950175039101C0003E
:10019000000000000000000000000000000000005F
:1001A000000000000000000000000000000000004F
:1001B0000000007E0F00D4FFFFFFC70000007800A2
:1001C000000000000000002A2B28000000000000B2
:1001D0000000000000000000000029000000002CCA
:1001E0001E3420212224342627252E362D37382769
:1001F0001E1F202122232425263333362E37381F75
:100200000405060708090A0B0C0D0E0F1011121336
:100210001415161718191A1B1C1D2F3130232D35D4
:100220000405060708090A0B0C0D0E0F1011121316
:100230001415161718191A1B1C1D2F3130354CFDBB
:10024000377A585A000004E6D6B446020021011657
:10025000000000742FE5A3E002CF01115D003D888E
:1002600089C65436C3174FE4DDF68FA1EFCE974E03
:10027000C929DDBDEF7630D32446BA4FFB665A4A12
:10028000E0F746C135F9BCCD27EE5B0F197C8982BA
:10029000A80D2C6D8D4793DC3480E137168DD7C5C2
:1002A000B3248262D69115489676797EC1860EC2B5
:1002B0009AF9D87382AD4C4B6E2C03D3A5906FC0C6
:1002C000F301667268DE2CBD2908CDA7BB4E5C7AAF
:1002D0003C580D2CE04B1DDF8B1E50187B017FD04E
:1002E0008321AE50E4819E887292BB7A4B3ECCCE85
:1002F0009207CF7019FC6E8ABF296122761F96780B
:10030000E3DC629756E26F0EEC890CFFE76BC02AC4
:10031000A748AA0A7644190884AC829E133CE94C8B
:1003200076283C14F05B2BE34F0F142920AB3C5E86
:100330005950E38834778D3D974680A3DD433210D2
:100340009B55B9310CB0AEF2FDCF82A4BDE9CDB959
:1003500026EDA34514A8D01CB824586E295B5DD2A5
:10036000661FDAC6B799B536C32E0AC4F52A00004F
:100370000000004E076E29A5B8CE1B0001AD02D0CB
:10038000050000FFFE883CB1C467FB0200000000CE
:1003900004595AA900AA000100010001000100014E
:1003A0000001004E004B00010001000100010001AE
:1003B000000100AB00AC00010001000100010001E0
:1003C000000100BB00BC00010001000100010001B0
:1003D0000001002A00540055005600A8005F00608C
:1003E0000061005700A8005C005D005E005700A897
:1003F0000059005A005B005800A8006200620063C8
:10040000005800000001000100010001000100018E
:1004100000010001000100010001000100010001D4
:1004200000010001000100010001000100010001C4
:1004300000010001000000010001000100010001B5
:1004400000010001000100010001000100010001A4
:100450000001000100010001000100010001000194
:100460000001000100010000000100010001000185
:100470000001000100010001000100010001000174
:100480000001000100010001000100010001000164
:100490000001000100010001000000010001000254
:1004A00004000002000200FE03000003000100033C
:1004B00004000004000200E803DB0505000100045D
:1004C00004000006000200EA03000007000200002A
:1004D000040000080001000504000009000200EC0F
:1004E00003B6050A000200EE03B6050B000200F099
:1004F00003B6050C000200F203B6050D000200F47D
:1005000003B6050E000200F603B6050F000200F860
:1005100003B60510000200FA03B60511000200FC44
:1005200003B60512000200060400001300020008D2
:1005300004000009025B00030100A0FA09040000A6
:1005400001030101000921110100012240000705FA
:10055000810308000A0904010002030000000921C8
:100560001101000122220007058203200001070576
:100570000303200001090402000103000000092117
:10058000110100012281000705840320000A1201E5
:10059000000200000008666A4E45010001020301E6
:1005A0001C037600690061006C003A0066003600AA
:1005B00034006300320062003300630000000C036B
:1005C00045006E0076006F00790000000E034A00BF
:1005D00065004A0065006600660000000403090427
:1005E00011241FBECFEFDAE0DEBFCDBF04B603FE9D
:1005F00027C08091340490913504A0913604B091C5
:1006000037048730904BA740B04BD1F4109234049C
:1006100010923504109236041092370414BE84B739
:10062000877F84BF0FB6F894A89580916000886199
:1006300080936000109260000FBEE0E0F8E309953F
:1006400011E0A0E0B1E0E6EDF0E602C005900D9209
:10065000A238B107D9F724E0A2E8B1E001C01D92A9
:10066000A433B207E1F70E9400280C9437300C94B1
:100670000000E8EDF0E080818E7F80831092E20040
:100680001092DA001092E100A0EEB0E08C9181604F
:100690008C9380818F77808319BCA7EDB0E08C911B
:1006A0008E7F8C9380818F7E808310921C040895AE
:1006B0002091E4003091E50095E6A9012091EC003D
:1006C000822F817020FF06C08091E80080FF06C065
:1006D00080E008952091E80022FD1AC08091320444
:1006E000882389F0853089F08091EB0085FD0FC06B
:1006F0002091E4003091E50042175307F9F2915040
:10070000E1F684E0089582E0089583E0089581E0B1
:100710000895EF92FF920F931F93CF937C018B016B
:100720000E945803C82F811117C08091E80085FDF1
:100730000BC08091E8008E778093E8000E945803F8
:10074000882399F3C82F08C0F70181917F01809316
:10075000F1000150110949F78C2FCF911F910F9192
:10076000FF90EF900895CF93FC0180913204843084
:1007700001F5C091E900CF702091EC00922F9170AB
:1007800020FD90E8C92B82E08093E9008091E80089
:1007900080FF0CC050E040E060E270E0CF010E94BA
:1007A00089038091E8008E778093E800CF70C09332
:1007B000E900CF91089580912A0487FF13C08091AA
:1007C000E80082FF06C08091E8008B778093E80004
:1007D00004C0809132048111F2CF089580913204D7
:1007E0008823D9F38091E80080FFF8CF8091E8005A
:1007F0008E77ECCF982F9093E900242F762F50E03E
:10080000891731F07091EC002091ED005091F000CB
:1008100021FD07C09F5F973071F78093E90081E069
:1008200008953091EB003E7F3093EB003091ED0066
:100830003D7F3093ED003091EB0031603093EB0061
:100840007093EC002093ED005093F0002091EE00A7
:1008500027FDE0CF80E00895CF92DF92EF92FF92E4
:100860000F931F93CF93DF93C8EDD0E088818F7EE5
:100870008883E7EDF0E080818160808384E082BF3F
:1008800081E080931C0488818E7F888302EE10E0D3
:10089000F80110821092DA0081EEC82ED12CF601F8
:1008A000108288818F778883888180688883888197
:1008B0008F7D888319BC1092320410922904109203
:1008C00028041092270490EEE92EF12CF701808184
:1008D0008B7F808388818160888342E060E080E054
:1008E0000E94FA03F60180818E7F8083F801808167
:1008F00081608083808188608083F70180818E7F22
:100900008083888180618883DF91CF911F910F91CF
:10091000FF90EF90DF90CF900895FC01809130041C
:100920009091310486179707A0F06115710529F49D
:100930009091E8009E779093E80090E06115710532
:1009400051F4911108C08091E80082FF34C080E02A
:100950000895BC01F2CF809132048823C1F1853023
:10096000C1F18091E80083FD30C08091E80082FDF4
:10097000EACF8091E80080FFE1CF8091F3002091E1
:10098000F200382F6115710519F02830310558F043
:1009900091E02830310509F090E02091E8002E77B1
:1009A0002093E800CBCF81918093F10061507109D1
:1009B0002F5F3F4FE7CF80913204882341F085308D
:1009C00041F08091E80083FFBECF81E0089582E08E
:1009D000089583E0089580911E04089587E797E7BE
:1009E000909301088093000888E19AE00FB6F8948C
:1009F000A895809360000FBE90936000FFCF9C018C
:100A00004FB7F8948091150490911604A0911704A3
:100A1000B09118044FBF821B930B08952FB7F89421
:100A20008091150490911604A0911704B0911804B8
:100A30002FBF08959C01FC0132969FEF80E0419109
:100A4000461751F09F3F19F4411101C0982F8F5F55
:100A50008630A9F79F3F09F40895290F311D97FDAE
:100A60003A95F9016283089520911204309113049C
:100A70002817390771F09093130480931204E091C2
:100A80001004F0911104309721F00084F185E02DDD
:100A90000994089520910E0430910F042817390706
:100AA00071F090930F0480930E04E0911004F09184
:100AB0001104309721F00680F781E02D0994089504
:100AC000E0911004F0911104309721F00190F08131
:100AD000E02D099480E00895452B39F0682381E0EA
:100AE0006F3F09F080E08170089581E0FCCFDC0168
:100AF0006091300380913103962F891301C00895CE
:100B0000292F30E0F901EE0FFF1FE85DFC4F408117
:100B100051814A175B07A1F487E08A9FA0018B9F50
:100B2000500D112440515D4F81E0FA0184839613EA
:100B3000E6CF2F5F3F4F2370332720933003089574
:100B40002F5F3F4F922F9370D8CF10928D0210924B
:100B50008C02E0EFF2E08581811102C014821682DE
:100B6000379683E0E832F807B1F70895E8EEF3E04E
:100B7000848195812AE030E0B9010E94822F609340
:100B800012018681809311018285809310018485F2
:100B900080930F0186859785B9010E94822F60930B
:100BA0000E01808980930D01828980930C018489D4
:100BB00080930B0108958091E8039091E90390934D
:100BC00015018093140108950E940E059C019091D7
:100BD0001C0280911D02982B21F030931902209362
:100BE000180290911E0280911F02982B21F03093E1
:100BF000170220931602E0911004F091110430972F
:100C000049F082E080931A020480F581E02D8AE1A8
:100C100092E00994089590911C02803F59F48091CC
:100C20001D0287FF0DC010921D0291110BC0109282
:100C3000140208C0813F81F480911D0218169CF3B4
:100C4000992381F080911E0290911F02892B09F057
:100C500064C0109213020895823F49F497FFF0CFC9
:100C600010921C0280911D028111ECCFE0CF833FD6
:100C700019F41916ACF3E4CF20911E02893F29F430
:100C80001216F4F610921E02DBCF8A3F19F427FFEA
:100C9000D7CFF8CF20911F028B3F29F427FFD0CF69
:100CA00010921F02CDCF8C3F19F41216CCF3C8CF8F
:100CB000843F31F480911B028E7F80931B02C0CF52
:100CC000853F21F480911B028D7FF7CF863F21F471
:100CD00080911B028B7FF1CF873F21F480911B0213
:100CE000877FEBCF883F21F480911B028F7EE5CF79
:100CF0008D3F31F4809115028E7F80931502A0CF35
:100D00008E3F21F4809115028D7FF7CF8F3F09F040
:100D100097CF809115028B7FF0CF089580911502B7
:100D200080FF0CC060910C0170E07595679575951A
:100D300067956115710549F1862F089581FF06C0F9
:100D400060910C0170E075956795F3CF60910C018F
:100D500082FD0BC0909113029923A1F060910B01C9
:100D600080910C01961738F0682F70E0603871059B
:100D700000F38FE70895899FC001112470E00E945D
:100D8000962FF4CF61E070E0D7CF81E00895809195
:100D900015026091F0037091F10380FF16C020915D
:100DA0001001269FC001279F900D1124BC0176954C
:100DB0006795769567956038710508F043C06115B1
:100DC000710509F441C0862F089581FF0BC0209161
:100DD0001001269FC001279F900D1124BC0176951C
:100DE0006795E9CF82FF09C0809110019B01829F26
:100DF000B001839F700D1124DECF209114022223B5
:100E0000D1F290910F0180911001482F50E02917E5
:100E100048F0CB01849FB001859F700D949F700DA9
:100E20001124C9CF289F90011124269FA001279F3C
:100E3000500D369F500D1124692F70E0CA010E9499
:100E4000822FB9CF8FE7089581E00895803F31F474
:100E50000E94C706819580931D020895813F19F471
:100E60000E94C706F8CF823F31F40E94C7068195E1
:100E700080931C020895833F19F40E94C706F8CF9F
:100E8000893F29F40E948E0680931E0208958A3FAE
:100E900021F40E948E068195F7CF8B3F31F40E949A
:100EA0008E06819580931F0208958C3F19F40E944D
:100EB0008E06F8CF843F31F480911B0281608093CD
:100EC0001B020895853F21F480911B028260F7CFB9
:100ED000863F21F480911B028460F1CF873F21F48B
:100EE00080911B028860EBCF883F21F480911B0228
:100EF0008061E5CF8D3F31F4809115028160809350
:100F0000150208958E3F21F4809115028260F7CF7B
:100F10008F3FB9F7809115028460F1CF80E008958A
:100F2000F894E82FE295EF70F0E031A1282F2F70B0
:100F300081E090E001C0880F2A95EAF7982F9095FC
:100F4000932391A392A1892B82A3789408959091E1
:100F5000F00192FF06C0282F28712830F9F4877F0E
:100F6000846093FF06C0282F28712831F1F4877E12
:100F700084612091F10120FF06C0382F387138308C
:100F8000D9F4877F816021FF06C0282F287128317E
:100F9000D1F4877E816194FD877E0895282F247186
:100FA0002430F9F68B7F8860DCCF282F2471243120
:100FB00001F78B7E8861DDCF382F3171313019F721
:100FC0008E7F8860E0CF282F2171213121F78E7E1E
:100FD0008861E1CFCF93DF93EC0182389105A9F1CD
:100FE000D8F58133910509F496C048F58932910509
:100FF00009F48AC08A9709F495C0C11521E5D20782
:1010000008F0BCC0C11530E5D30708F014C1C83ED4
:10101000D10508F09CC0C03ED10560F5C83AD105A5
:1010200008F087C0C53AD10508F0FDC0C130D10530
:1010300009F12097F9F0C430D105E0F440C08533C0
:10104000910509F45AC0C997C1F68091F0018370E7
:1010500089F0C0EED0E00EC0833E910599F170F4A6
:10106000803E910501F1823E910539F68091F001B3
:1010700082FD21C0CE01DF91CF910895863E91057A
:1010800061F1873E910571F1843E910509F0B5CF7C
:101090008091F10181FFEECF8091F001C7EED0E0A9
:1010A00084FD0DC0E7CF8091F00180FD12C19091C9
:1010B000F10190FFDFCFC3EED0E084FFDBCFD0E0C3
:1010C000C0E0D8CF8091F00182FD06C19091F1017E
:1010D00090FDBFCF84FFCECFF2CF8091F00183FD92
:1010E000DDCFC8CF8091F00183FDF9C09091F1016F
:1010F00091FFF0CFC4EED0E0BDCF8091F00185FF2D
:10110000B9CFC9E2D0E0B6CF8091F00185FFB2CF70
:10111000C5E3D0E0AFCF8091F00186FFABCFCAE24C
:10112000D0E0A8CF8091F00186FFA4CFC1E3D0E04A
:10113000A1CFCF3BD10518F6C85AD0E0CC0FDD1FA8
:10114000CD5DDE4F0990D881C02DD46493CFC115F9
:1011500040E2D40758F4C11581E0D80708F08ACFDF
:10116000C03FD10508F4ABCFD06584CFC11590E462
:10117000D90708F4A4CFDF70D06A7CCFC11525E56C
:10118000D20700F5C11534E5D30708F08AC0C115B0
:1011900043E5D40708F071C0C11582E5D80708F40B
:1011A00067C0CE018370992721E030E002C0220F92
:1011B000331F8A95E2F7C695C69580E2C89FE00185
:1011C000112452C0C11599E5D907A8F4C11528E525
:1011D000D20708F06BC0C11536E5D30708F06FCF12
:1011E0008C2F0E94A707C82FD0E0DC2FCC27CC275C
:1011F000DF71D0623FCFC1154AE5D40708F45BC068
:10120000CE0190568115904208F059CF8D2F8F71E5
:101210000E94A70790E0982F882788279F719C013C
:101220002C2BE901E6CFC55AD0E0C05EDE4FC88165
:10123000D0E0D0641FCFCE01E4E096958795EA9583
:10124000E1F783702C2F26952695237040E2249F8A
:1012500090011124382B8C2F8370C1E0D0E002C0A4
:10126000CC0FDD1F8A95E2F7C22BD32BDC6802CFAF
:10127000DC2FCC27C16FD06AFDCECE0183709927B9
:1012800021E030E002C0220F331F8A95E2F7C695B5
:10129000C69590E2C99FE0011124C22BD32BDA68D6
:1012A000E9CEDC2FCC27C46FD06AE4CEDC2FCC276C
:1012B000C06FD06ADFCE8C2F8F700E94A70734E0FA
:1012C000D695C7953A95E1F7CF709C2FEC01D06980
:1012D000D1CEC9E3D0E0CECEC2EED0E0CBCEC6EECA
:1012E000D0E0C8CE8091EC01882331F01092EC015F
:1012F0001092EB011092EA01089580959091E70316
:1013000098239093E7030895809590913403982350
:101310009093340308951092E8011092E70110921F
:10132000E60108958091EA039091EB03892B89F0FF
:101330000E940E052091EA013091EB01AC01421BA5
:10134000530B81E02091EA033091EB0342175307DE
:1013500008F480E081700895809134039091E70350
:10136000892B9091E901892B809384018091EC0174
:10137000882309F18091EA039091EB03892B29F0EE
:101380000E94920981110E947209809184019091BA
:10139000EC01892B8093840120E086E891E0FC0138
:1013A0003191CF0131112F5FF1E08C389F07B9F7F0
:1013B00021110E947209E0911004F09111043097FC
:1013C00031F00280F381E02D84E891E009940895E2
:1013D000EF92FF920F931F93CF93DF93EC018A85D7
:1013E000811134C0EB80FC8087E5F81A26E12E9D40
:1013F000C0012F9D900D1124DC01A95CBC4F1496F7
:10140000ED91FC911597309731F054966D917C9148
:10141000835C9C4F099586E18E9D80018F9D100D08
:101420001124095C1C4FF80187810E948409F8018E
:1014300080850E947D090E94AC09188219861B864E
:101440001E821D821092360310923503DF91CF91D8
:101450001F910F91FF90EF900895CF93DF93EC01D0
:10146000898981111BC081E0898B809134039F8120
:10147000892B809334038091E7039885892B80938F
:10148000E7030E94AC09EA81FB81309739F06C894F
:101490007D89CE010696DF91CF910994DF91CF919E
:1014A00008958091E50181111092E5010895209140
:1014B000E4019091A301291302C080E0089530E077
:1014C000F90153E0EE0FFF1F5A95E1F7EC55FE4F7F
:1014D0005181561306C05081581303C052815413D2
:1014E00004C02F5F3F4F2770E6CF81E008958091C1
:1014F000E4019091A301981301C008958F5F877054
:10150000FACF9E3F51F1292F220F220FE22FE90F30
:10151000E80F9E2F9770E695E695E69583E0E89FA5
:10152000F0011124E157FE4F50E040E080E02191AE
:1015300030E0092E02C0369527950A94E2F7217013
:101540003327042E01C0220F0A94EAF7822B4F5F43
:101550005F4F4330510559F7089580E008959E3F4D
:1015600071F1292F220F220FE22FE90FE80F8E2FA2
:10157000877041E001C0440F8A95EAF7E695E69549
:10158000E69583E0E89FF0011124E157FE4F30E03B
:1015900020E070E05191DF011197CB01022E02C0D3
:1015A000969587950A94E2F7817081958527842323
:1015B00085278C932F5F3F4F2330310559F70895CE
:1015C000E92FE295EF70E250EE3070F4F0E0E75C66
:1015D000FF4C0C94AA2F803F19F020F4883E20F491
:1015E00081E00895843FE1F380E00895883EC0F3F0
:1015F000813FD1F7F5CF93FB882780F9089590E0DC
:1016000080E00E944A0590E080E00E94340510923C
:10161000E7031092E9010E94AC0986E0EAE1F2E0FA
:10162000DF011D928A95E9F71092140210921302BD
:10163000109215020C94E405809333040C94FF0A75
:1016400080913304982F9670963019F488600C942A
:101650001C0B877FFCCF21E030E001C0220F8A9570
:10166000EAF720958091330482230C941C0B90910F
:10167000E801809589238093E801282F277039F4A9
:10168000282F082E000C330B9217130621F490918B
:10169000F10192FF07C08595859585950E942B0BDA
:1016A0000C948B09089521E030E001C0220F8A9547
:1016B000EAF780913304822B0C941C0B9091F1017A
:1016C00092FD10C098E0899F90011124622B6093D5
:1016D000E8010E94530B0E940E059093E70180934E
:1016E000E60108950C94530B809320020C94FF0A9A
:1016F000882321F00E947D090C94AC090895882369
:1017000039F09091E703982B9093E7030C94AC0980
:101710000895882321F00E9484090C94AC0908954F
:10172000882339F090913403982B909334030C94D0
:10173000AC0908958823B1F19CEF980F913A70F4A9
:10174000E6E8F1E09191891303C0DF0111971C9243
:1017500091E0EC38F907B1F70C94AC0990E2980FDE
:10176000983050F4877091E001C0990F8A95EAF79C
:10177000892F0E948409F0CF9BE5980F933020F4C5
:1017800090E080E00C944A0598E5980F973120F49A
:1017900090E080E00C943405803F20F00E940B061E
:1017A0000C94E4050895CF93C82F882309F456C0FC
:1017B0008CEF8C0F813AF8F4E6E8F1E08CE891E0E8
:1017C000DF012D91C21759F08A179B07D1F76C2FB3
:1017D00084E891E00E941A05CF910C94AC09219104
:1017E000C21303C0DF0111971C928E179F07B9F730
:1017F0000E94AC09ECCF80E28C0F883068F4C7708F
:1018000021E030E001C0220FCA95EAF7809134034D
:10181000822B80933403E0CFEBE5EC0FE33040F410
:10182000F0E0E05EFE4F808190E0CF910C944A059D
:10183000E8E5EC0FE73150F4F0E0EE0FFF1FED5D4F
:10184000FE4F80819181CF910C943405C03F30F0E0
:101850008C2F0E942607CF910C94E405CF91089518
:101860009C013A9521153F4150F5FC01EE27F1709E
:10187000BC0166277270AC01442754709C0122277A
:10188000387094FF0EC080E1EF2B09F480E0672BE5
:1018900009F08062452B09F08064232B89F0806871
:1018A000089581E0EF2B09F480E0672B09F0826056
:1018B000452B09F08460232B19F08860089580E09F
:1018C000089590913204943029F58093190470930F
:1018D0001B0460931A049093E9008FEF9091E80045
:1018E000815095FD06C095ED9A95F1F700008111A4
:1018F000F5CF8091E80085FF0DC050E040E063E047
:1019000070E089E194E00E9489038091E8008E777D
:101910008093E8000895BC0184E00C94610CBC0144
:1019200083E00C94610C9C0184E08093E9009FEFBC
:101930008091E800915085FD06C085ED8A95F1F70C
:1019400000009111F5CF8091E80085FF0CC050E0B8
:1019500040E066E070E0C9010E9489038091E800E0
:101960008E778093E8000895CF93DF93EC0181E0B8
:101970008093E9008FEF9091E800815095FD06C0BB
:1019800095ED9A95F1F700008111F5CF8091E8006F
:1019900085FF14C050E040E068E070E0CE010E9496
:1019A00089038091E8008E778093E80088E0FE014B
:1019B000AFE1B4E001900D928A95E1F7DF91CF910C
:1019C0000895019708F40895EFE9FFE03197F1F7E2
:1019D00000C00000F6CFFF920F931F93CF93DF93C9
:1019E0008C01EB01F42E8091160182FF43C08B7FA6
:1019F0008093160180910A0420910C0430910D040B
:101A0000AB01421B530B9A014091140150911501F7
:101A100024173507A8F40E94D30B809116018D7FFF
:101A20008093160180910604909107040E94E10CB6
:101A300080910A040E949A0B82E00E947D0924C0D2
:101A40009091E70392609093E7030E94D30B8091FB
:101A500016018260809316018091030485FFE2CF16
:101A600086FDE0CFFF20F1F2DF91CF911F910F9122
:101A7000FF900895802F0E949A0B80910A04909104
:101A80000B0480179107C1F20E94AC09D0930D049A
:101A9000C0930C04E9CF1F93CF93DF93182FC0910D
:101AA0000804D0910904893321F0C0910604D09133
:101AB0000704812F0E94D30B209731F4812FDF91EF
:101AC000CF911F910C949A0B8FE99FE00197F1F74A
:101AD00000C000002197F0CF0F931F93CF93DF93A7
:101AE000C42FD22FFC0182818823A1F040938B0266
:101AF0000E940E0590938A0280938902C77081E04C
:101B000001C0880FCA95EAF7DF91CF911F910F911D
:101B10000C94900B10918B02141339C080918902A0
:101B200090918A020E94FF042091000430910104E8
:101B30008217930760F5C0E2CD0F1D17B9F080E260
:101B4000810F883040F4177081E001C0880F1A952A
:101B5000EAF70E94890BC83048F481E09D2F977006
:101B600001C0880F9A95EAF70E94900B802F0E947F
:101B70004B0DC83098F4D77081E001C0880FDA951A
:101B8000EAF7DF91CF911F910F910C94890BC770E9
:101B900081E001C0880FCA95EAF7F3CFDF91CF91BA
:101BA0001F910F910895AF92BF92CF92DF92EF9263
:101BB000FF920F931F93CF93DF93EC018AE0A82E3F
:101BC0002881222309F48CC02130C9F599818A81AA
:101BD000913021F422960E944B0D05C0923029F4D9
:101BE00022960E94D30B2196EBCF933021F42296BC
:101BF0000E949A0BF8CF943011F02196F4CF2296E0
:101C000030E020E0AE014F5F5F4F8053990B8A3088
:101C1000910550F02150310930F38FE99FE0019791
:101C2000F1F700C00000F6CFA29EB001A39E700D98
:101C300011249C01260F371F8981EA01E3CFE22F8F
:101C4000F0E0E154FE4FB490822F869586958695FC
:101C500090E0FC01E155FE4FE4902770F12C022E3C
:101C600002C0F594E7940A94E2F731E0E322FF24FE
:101C7000FC01E156FE4FC490D12C022E02C0D59437
:101C8000C7940A94E2F731E0C322DD24FC01E15756
:101C9000FE4F049110E002C0159507952A95E2F7D2
:101CA00001701127E114F10419F081EE0E94D30BA9
:101CB000C114D10419F086EE0E94D30B8B2D0E9423
:101CC0004B0DCD2819F086EE0E949A0BEF2819F0E3
:101CD00081EE0E949A0B012B09F485CF8CE27BCF19
:101CE000DF91CF911F910F91FF90EF90DF90CF90F8
:101CF000BF90AF9008950F931F93CF93DF9308EE9B
:101D000013E0CFE2D1E0CE010E94ED2FF8018193E4
:101D10008F012196C135F1E0DF07A9F7C1EAD4E0D0
:101D2000FE0185919491009711F0FC010995289688
:101D3000F5E0C933DF07A1F7DF91CF911F910F9134
:101D400008950F931F93CF93DF93843038F5643059
:101D500028F520E1829FC001112434E0639FB00187
:101D60001124860F971FC42FD0E0CC0FDD1FC80FA2
:101D7000D91FC151DF4FCE010E94ED2F082F10E077
:101D8000102F0027CE0101960E94ED2F9801282BDD
:101D9000C901DF91CF911F910F91089590E080E0EC
:101DA000F8CF0F931F93CF93DF93843030F56530D6
:101DB00020F5453010F5C42FD0E0CC0FDD1F2AE010
:101DC000629FC00DD11D112432E3839FC00DD11D30
:101DD0001124CE0187960E94ED2F082F10E0102FBE
:101DE0000027CE0188960E94ED2F9801282BC9016B
:101DF000DF91CF911F910F91089590E080E0F8CF8F
:101E0000462F2091870230918802232B91F47E3F48
:101E100039F46E3F71F480918502909186020895A5
:101E2000843038F4753028F4653018F4672F0C943A
:101E3000D10E90E080E00895CF92DF92FF920F9351
:101E40001F93CF93DF936C010091330480912002A4
:101E5000082BC7E0D0E010E0FC2EC8010C2E02C019
:101E6000959587950A94E2F780FD0CC02197A0F71D
:101E7000F12C8F2DDF91CF911F910F91FF90DF906B
:101E8000CF900895B6018C2F0E94000F0E94EA07A0
:101E9000019761F3EECFCF93DF93EC010E941C0F0B
:101EA000BE010E94000FDF91CF910C94EA07FC0164
:101EB00086819781009721F00E94EA070C94E00A3E
:101EC000808191810E944B0FF9CF1F93CF93DF93B5
:101ED00000D000D00F92CDB7DEB749835A838981F5
:101EE0009A816623B9F02223A9F00E941C0F182FB3
:101EF000682F89819A810E94AF0A69817A81812F36
:101F00000F900F900F900F900F90DF91CF911F9136
:101F10000C94000F0E94810A182FEFCFFC01262F8E
:101F200086819781009739F4408151816281738164
:101F300084810C94650F089583E290E00E94ED2F58
:101F4000833289F484E290E00E94ED2F8D3C59F4B5
:101F500085E290E00E94ED2F91E0883009F090E05A
:101F6000892F8170089580E0FCCFCF9384E090E0CA
:101F70000E94ED2FC82F82E290E00E94ED2F982F53
:101F80008C2FCF9108950F931F93CF93DF9308EE7B
:101F900013E0CFE2D1E0CE010E94ED2FF801619174
:101FA0008F01681719F0CE010E94FB2F2196C135D1
:101FB000F1E0DF0781F7DF91CF911F910F91089535
:101FC000E8EEF3E0128E138E8FEA90E09183808327
:101FD00085E0848F88E893E1938382834CE251E02B
:101FE0005583448322E330E03783268385E090E005
:101FF000918780878AE090E09387828764E170E030
:10200000758764875787468744E650E0518B408B3D
:1020100048E050E0538B428B48E250E0558B448BB4
:10202000378B268B28EC30E0318F208F158E978FE1
:10203000868F80E590E091A380A30E94C30F0C944B
:102040007B0ECF93DF93C1EFD1E060E0CE010E9421
:10205000FB2F2196C11584E0D807B9F7DF91CF9106
:1020600008950F931F93CF93DF938901843068F510
:10207000643058F5423048F501152CE5120731F46B
:102080002091830230918402232BF9F020E1829F7A
:10209000C001112424E0629FB0011124860F971F14
:1020A000C42FD0E0CC0FDD1FC80FD91FC151DF4FA7
:1020B000612FCE010E94FB2F602FCE010196DF9190
:1020C000CF911F910F910C94FB2FDF91CF911F9116
:1020D0000F9108950F931F93CF93DF93890184305D
:1020E00048F5653038F5453028F521153C4531F483
:1020F0002091830230918402232BE1F0C42FD0E0A1
:10210000CC0FDD1F9AE0699FC00DD11D112492E311
:10211000899FC00DD11D1124612FCE0187960E9489
:10212000FB2F602FCE018896DF91CF911F910F91E9
:102130000C94FB2FDF91CF911F910F910895CF93B6
:10214000C82F6FEF811163E283E290E00E94FB2FC2
:102150006FEFC1116DEC84E290E00E94FB2F6FEFF6
:10216000C11168E085E290E0CF910C94FB2FCF93F2
:10217000C091F101C2FB992790F9981781F080FB7B
:10218000C2F9C093F1016091F00184E090E00E94F7
:10219000FB2F6C2F82E290E0CF910C94FB2FCF911C
:1021A00008955F926F927F928F929F92AF92BF92AB
:1021B000CF92DF92EF92FF920F931F93CF93DF9313
:1021C000CDB7DEB764970FB6F894DEBF0FBECDBFB4
:1021D000A0908302B090840281E090E0909384020A
:1021E0008093830283E9882E83E0982E93EDC92E95
:1021F00093E0D92E10E0760100E015C0F30125919F
:102200003491452D602F812F0E946A1082E0680E64
:10221000711C5394E5E05E12F1CFFAE0EF0EF11C71
:102220000F5F053019F03701512CE8CF740100E041
:10223000F7012591349140E0602F812F0E943110E9
:10224000F70132962591349141E0602F812F0E9451
:10225000311084E0E80EF11C0F5F043049F7E0E133
:102260008E0E911C1F5FF2E3CF0ED11C143009F0CB
:10227000C2CF0E94E00F1A8219821C821B821E822A
:102280001D8218861F8288EC90E09A87898701E575
:1022900011E04AE050E0B801CE0101960E941F30E3
:1022A000065F1F4F013A81E0180799F77E01EBE0C6
:1022B000EE0EF11C8AE0F70111928A95E9F74AE0E7
:1022C00050E0B801C7010E941F30065F1F4F013F59
:1022D000F1E01F07A1F7B0928402A09283026496F6
:1022E0000FB6F894DEBF0FBECDBFDF91CF911F9127
:1022F0000F91FF90EF90DF90CF90BF90AF909F90A5
:102300008F907F906F905F90089580E00E949F1063
:1023100060E086E290E00E94FB2F0E94D1100E94B4
:10232000211081E00C949F109B01883070F49AE09A
:10233000899FB00111246F5A7E4F4AE050E0C901D5
:102340000E94DD2F90E080E008958FEF9FEF0895C9
:102350008F929F92AF92BF92CF92DF92EF92FF92B5
:102360000F931F93CF93DF93CDB7DEB72A970FB6A6
:10237000F894DEBF0FBECDBF07E313E0F12CE12CD4
:1023800084EFC82E85E2D82E9EE1A92E96E2B92EC2
:1023900020EF822E24E2922EF801D182C082B382F5
:1023A000A28295828482F58AE48ABE016F5F7F4FA4
:1023B0008E2D0E949411892B29F489859A85F80124
:1023C000938B828BFFEFEF1AFF0A0A5E1F4F88E0A4
:1023D000E816F10409F72A960FB6F894DEBF0FBE8F
:1023E000CDBFDF91CF911F910F91FF90EF90DF90C4
:1023F000CF90BF90AF909F908F900895CF92DF9233
:10240000EF92FF920F931F93CF93DF93CDB7DEB779
:102410002A970FB6F894DEBF0FBECDBFE3E3F2E01C
:1024200080E5DF011D928A95E9F7E0EFF2E088E3AD
:10243000DF011D928A95E9F783E3C82E82E0D82E4A
:102440007F0101EA11E0F701D182C0824AE050E049
:10245000B801CE0101960E94DD2F88E0FE01319681
:10246000D60101900D928A95E1F789859A85D70169
:1024700013969C938E931297BAE0CB0ED11CE7E093
:10248000EE0EF11C065F1F4F013FF1E01F07D9F66A
:102490002A960FB6F894DEBF0FBECDBFDF91CF9165
:1024A0001F910F91FF90EF90DF90CF9008951092C1
:1024B0003403E6E8F1E086E0DF011D928A95E9F752
:1024C0000C94FF0A1F93CF93DF93CDB7DEB7AA9783
:1024D0000FB6F894DEBF0FBECDBF8AE294E0209124
:1024E000F100DC012D93CD01B4E082339B07B9F7F5
:1024F00080912B04833009F471C0B8F4813009F461
:1025000048C0823009F4B2C08091E80083FF3AC12C
:1025100080912A0490912B049A3008F033C1E92F5E
:10252000F0E0E95BFF4C0C94AA2F8A3009F48DC0CF
:102530008B3009F470C0893039F780912A048132D8
:1025400019F780912E0490912F04009711F00297B3
:10255000D9F68091E800877F8093E8008091E800B9
:1025600082FF37C09091F3008091F200029729F426
:102570008091F1008B7F813021F48091F100809374
:102580001E048091E8008B778093E8000E94DB03B3
:10259000BBCF80912A04813A09F0B6CF8091E80040
:1025A000877F8093E80080912E0490912F04892BDF
:1025B00061F468E08FE194E070E00E948D04809106
:1025C000E8008B778093E8009FCF60E090E080E0A8
:1025D000F3CF809132048111C1CF96CF80912A042C
:1025E000813A09F091CF80912E0490912F04892B8C
:1025F00009F08ACF8091E800877F8093E80080917E
:10260000E80080FFFCCF809117018093F10080915A
:10261000E8008E77B9CF80912A04813209F074CF17
:1026200080912E0490912F04892B09F06DCF809119
:10263000E800877F8093E8000E94DB0380912C04F0
:10264000809317010E9457125FCF80912A04813234
:1026500009F05ACF8091E800877F8093E8000E94BC
:10266000DB0380912D0480931D044ECF80912A04BA
:10267000813A09F049CF8091E800877F8093E80094
:102680008091E80080FFFCCF80911D04BECF803890
:1026900099F0823809F076C080912E048F708730CF
:1026A00008F070C08093E9008091EB0085FB8827DB
:1026B00080F91092E90006C08091270490912804C7
:1026C000911182609091E800977F9093E800809349
:1026D000F1001092F1008091E8008E77C0C188234C
:1026E00009F4ADC1823009F04DC080912C048111F4
:1026F000B1C180912E048F702FEF280F263008F083
:1027000041C08093E9002091EB0020FFA3C19330EA
:1027100031F48091EB0080628093EB009BC190913B
:10272000EB0090619093EB0021E030E001C0220FBC
:102730008A95EAF72093EA001092EA008091EB0074
:102740008860EACF81111EC010912C041F77809100
:10275000E3008078812B8093E3008091E800877FFD
:102760008093E8000E94DB038091E80080FFFCCFAB
:102770008091E30080688093E30082E0111183E0A0
:10278000809332048091E80083FF0AC08091E800C2
:10279000877F8093E8008091EB0080628093EB005C
:1027A000AA960FB6F894DEBF0FBECDBFDF91CF91D2
:1027B0001F9108958058823028F720912C04309181
:1027C0002D042C3DE3E03E07A1F583E08A838AE2F5
:1027D00089834FB7F894DE01139620E03EE051E282
:1027E000E32FF0E050935700E49120FF03C0E295FF
:1027F000EF703F5FEF708E2F90E0EA30C0F0C79629
:102800008D939D932F5F243159F74FBF8091E8003E
:10281000877F8093E8006AE270E0CE0101960E9413
:102820008D048091E8008B778093E800ABCFC09651
:10283000E7CF80912E0490912F04432F55274330EA
:10284000510509F44AC078F54130510509F485C0B5
:102850008BE590E0E3E3F5E04230510509F092CFDB
:102860002091E800277F2093E800209130043091E8
:1028700031048217930708F49C0140E021153105CB
:1028800009F070C041116EC08091E80082FDC9CF8F
:1028900080913204882329F2853019F28091E80072
:1028A00083FFF2CFBECF4132510509F447C0423217
:1028B000510509F067CF8330910508F063CFFC0123
:1028C000EE0FFF1FEA58FE4F0190F081E02D8D586A
:1028D0009E4FDC018C9190E01DC0332721303105E3
:1028E000E9F02115310579F022303105F9F0233076
:1028F000310509F047CFE0EAF5E0E4918E2F90E052
:10290000E0EAF5E007C0ECEDF5E0E4918E2F90E011
:10291000ECEDF5E0009709F435CFA2CFECECF5E053
:10292000E4918E2F90E0ECECF5E0F4CFEEEBF5E0E7
:10293000E4918E2F90E0EEEBF5E0ECCF8330910543
:1029400008F020CF880F991FFC01E458FE4F01903A
:10295000F081E02D89E090E083CF82E190E0EEE825
:10296000F5E07ECF80913204882309F45ACF853078
:1029700009F457CF8091E80083FD53CF8091E800A0
:1029800082FD82CF8091E80080FF78CF9091F300A4
:102990008091F2002115310519F08830910550F031
:1029A00041E0089709F040E08091E8008E7780933D
:1029B000E80064CF44914093F100319621503109F1
:1029C0000196E8CF803809F0DDCE8091E800877F5E
:1029D0008093E800809129048093F1007CCE8111DE
:1029E000D1CE10912C04123008F0CCCE8091E800AA
:1029F000877F8093E800109329040E94DB03112352
:102A000011F084E005C08091E30087FDFACF81E0FA
:102A10008093320442E061EC81E00E94FA0342E2DA
:102A200061EC84E00E94FA0342E261EC82E00E94E1
:102A3000FA0342E260EC83E00E94FA03A3CE8091A5
:102A40002C04813009F09ECE81E0933009F080E0C3
:102A5000809328041092E9008091E800877F80939A
:102A6000E8000E94DB038ECE6AEE7EEF90E080E00D
:102A70000E94193060E082E090E00E94FB2F60E04D
:102A800083E090E00E94FB2F1092200260E084E03F
:102A900090E00E94FB2F60E082E290E00E94FB2F1A
:102AA00060E085E090E00E94FB2F60E086E090E02F
:102AB0000E94FB2F6FEF87E090E00E94FB2F40E029
:102AC00050E0BA0188E090E00E940D3060E08DE0B7
:102AD00090E00E94FB2F40E050E0BA0188E190E0D6
:102AE0000E940D3060E087E190E00E94FB2F40E003
:102AF00050E0BA018CE190E00E940D3070E060E09F
:102B000080E290E00E94193040E050E0BA0188E194
:102B100090E00E940D3080E00E949F100E9485117D
:102B200040E050E0BA018FE090E00E940D3040E0BC
:102B300050E0BA0183E190E00C940D308F929F92A7
:102B4000AF92BF92CF92DF92EF92FF920F931F93BB
:102B5000CF93DF9300D000D0CDB7DEB77C01DC018E
:102B600013964D915C91149711966C9111978C91DD
:102B70000E946C05811174C061E0C7010E948E0F34
:102B80008C01F7018281811111C0D70112968C91BD
:102B9000811148C00031FFE51F0709F4E8C0013189
:102BA0002FE5120709F012C682E0E2C08091000111
:102BB0008F3F59F357E3C52E53E0D52EB12CA12CEE
:102BC0009924939480910001082E000C990B8A158A
:102BD0009B05DCF2F60186818823E9F081859285E8
:102BE0000817190739F480913503909136030817B7
:102BF000190789F0D6011F969C921F971C961C936B
:102C00000E931B97C6010E942D0AC60106960E94CC
:102C1000E8091092E703BFEFAB1ABB0AE6E1CE0E5C
:102C2000D11CD0CF980122513F452031310508F009
:102C3000C3C58FEF93E00E94ED2F4EEED42ED00E41
:102C400001EF11E0882349F18091E801877041F09C
:102C5000D70112968C91882319F082E00E94370BDD
:102C60000F900F900F900F90DF91CF911F910F91C8
:102C7000FF90EF90DF90CF90BF90AF909F908F909C
:102C800008950115F4E01F07F9F2C8010E94ED2F25
:102C9000811101C0DA940F5F1F4FD110F2CF19825A
:102CA0001A821B821C82CC24CA9448012FEF821AFC
:102CB000920AC8010E94ED2F89831A82882321F28B
:102CC000813009F048C0580132E0A30EB11CC401A4
:102CD0000E94ED2F982E8A83882309F4B5CFC50171
:102CE0000E94ED2FD82E8FEF890D833068F45801A4
:102CF00043E0A40EB11CDB82DD2021F0CE01019661
:102D00000E94D30D8501D1CF54E09512FBCF58011D
:102D100084E0A80EB11CC80103960E94ED2FDD20AF
:102D200009F492CF882309F48FCF8150990BC89E64
:102D30009001C99E300D1124AD2DA150BB0BCD01CA
:102D4000820F931F0197F0F2EFE9FFE03197F1F75F
:102D500000C00000F7CFCE0101960E94D30D5401B0
:102D6000D1CF81E00E94530B0E94200B6DCF81E0F8
:102D70000E942B0BF9CF82E0F5CF4FEFC416D104A0
:102D800011F008F02FC569E272E08C2D0E949411B9
:102D9000892B29F586E18C9DF0018D9DF00D112484
:102DA000E95CFC4F8681813009F061C08091290285
:102DB00090912A02892B99F080912B0290912C02FC
:102DC000892B69F080912D0290912E0220912F0283
:102DD00030913002822B932B892B09F452C08091C1
:102DE0000001082E000C990B8C159D0514F4C0925F
:102DF0000001F701828196E19C9D50019D9DB00CE0
:102E000011249501295C3C4F6901D90150968C939E
:102E10005097928116968C911697992309F43FC08A
:102E20001A961C930E9319978F5F16968C930E9497
:102E30000E05F601968785878091EC018783809146
:102E4000E70390913403892B80870190F081E02D76
:102E5000309741F0D60154966D917C91C501835C09
:102E60009C4F09951093360300933503BBC4823001
:102E700009F0B5CF80912D0290912E02892B09F493
:102E8000AECF26E12C9DC0012D9D900D1124895CB3
:102E90009C4FDC0150961C920E942D0AA0CF8823E3
:102EA00009F4A0C4F9018189882309F49BC4C501F0
:102EB000835C9C4F0E94E80995C480911601816053
:102EC00080931601F7013281332309F4E4C4109290
:102ED0008B020230FCE51F0708F411C506312CE512
:102EE000120730F0C8018A5F9C45099708F007C5B2
:102EF0000E94B50F9093F1018093F00100313CE501
:102F0000130709F473C108F006C108305CE5150722
:102F100009F462C108F0D5C004309CE5190709F432
:102F200053C108F0BBC00230BCE51B0709F446C121
:102F30008091F001826003301C4509F442C1609128
:102F4000F0011091F10184E090E00E94FB2F612FCD
:102F500082E290E00E94FB2F0E94571275CE809172
:102F600016018E7F8093160182E00E947D09AACF10
:102F70000933110560F40D32110520F40B321105EF
:102F800009F06AC48091030482FD66C408C0043657
:102F90001105C1F361C48091030484FD5DC4D701B0
:102FA00012968C91882309F445C08091160180FF08
:102FB00053C49091030491FD04C020913403211166
:102FC0004BC495FF26C096FD02C081FD22C0209112
:102FD0000C0430910D04F601E21BF30BE83CF10503
:102FE000C0F420910A0430910B040217130789F4EE
:102FF00081FD09C0802F0E94D30B26CE809103044F
:1030000083FD2AC4CCCF8091E70382608093E703DD
:10301000F1CF10930B0400930A04D0920D04C092D8
:103020000C048091160184608093160182E00E9456
:10303000370B0ACE40E0B601C8010E94EB0C04CE6B
:10304000053F8CE51807F1F0B8F0063FACE51A072C
:1030500009F038CF07E225EE46EE66EF7CE517C4AF
:1030600007E225EE45EE68ED7CE511C406E221EEAF
:1030700040EE63EF7CE50BC407E225EE44EE64EF1F
:103080007CE505C406E221EE42EE65EF7CE5FFC378
:1030900008E221E045EE69ED7CE5F9C38091F0019D
:1030A00080610630FCE51F0709F48BC08091F001B8
:1030B000886007301C4508F484C08091F00180626C
:1030C00080C08091F0018D7F0C303CE5130709F43E
:1030D00078C070F48091F0018C600A305CE51507CF
:1030E00009F46FC008F47CC08091F0018E7F69C044
:1030F0008091F001877F0E309CE5190709F461C0CB
:103100008091F0018B7F0F301C4508F45AC08091EC
:10311000F0018F7E56C00B3FBCE51B0709F458C079
:1031200030F50331FCE51F0709F468C078F401317C
:103130003CE5130709F45EC002311C4509F0FFCEDF
:103140000E9457128091F0018F773BC005315CE5FA
:10315000150709F45BC008F46FC08091F10181602C
:103160000A3F1C4509F0EBCE8093F101E8CE0F3FFA
:10317000ACE51A0709F446C088F48091F1018D7F0F
:103180000D3FECE51E0781F38091F1018E7F0E3F2C
:103190001C4550F38091F1018360E6CF01302DE5AD
:1031A000120709F452C0F0F160E002301D4509F049
:1031B000C6CE8EE090E00E94FB2FC1CE8091F00140
:1031C00081608093F001BBCE8091F0018460F9CFE3
:1031D0008091F1018260C8CF8091F0018064F1CFCD
:1031E0000E9457128091F0018068EBCF8091F0012E
:1031F0008F7DE7CF8091F0018F7BE3CF8091F0014D
:10320000837FDFCF8091F1018C7FAECF8091F00181
:1032100082FB992790F921E0922790FB82F990FB9D
:1032200083F9CFCF8091F101982F909591708E7F87
:10323000892B90FB81F998CF0E9457129091F00151
:10324000892F97FB87F98058BCCF61E0B2CF80917E
:103250008C0181110FC089E2E6E8F1E02CE831E051
:103260009191891303C0DF0111971C922E173F071C
:10327000B9F742C385E3F0CF0B35BDE51B0701F17C
:103280000C351D4509F04FC38091F10182FB882761
:1032900080F991E089270E94B71045C30E94571218
:1032A000FFEF24E33CE0F15020403040E1F700C064
:1032B00000000E94EE040E943415C6CC81E0EBCFE2
:1032C00080E0E9CF828100811181882369F0C80103
:1032D0000E941C0FD82E682FC8010E94AF0AB801A7
:1032E0008D2D0E94000F25C3C8010E94810AD82E8F
:1032F000F6CF202F2F70B22E802F807F19F0B2943E
:1033000090EFB922CC20C9F0BB2069F080E2810F98
:10331000883010F011110BC080913403B82AB0929C
:1033200034030E94AC09812F0E94D30B16C08091F8
:10333000E703B82AB092E703F4CF812F0E949A0BDB
:10334000BB2059F080E2810F883010F0111133C09A
:103350008B2D0E9484090E94AC09A92DA850BB0B9B
:10336000149710F40E946005812F902F0E94E00AAC
:10337000811103C210928E0110928D01AA20B1F02A
:103380008091E80180FD12C0D70112961C928595AC
:10339000859585950E94530BC7010E949E158091CB
:1033A000E8018595859585950E942B0B60E0C70106
:1033B0000E948E0F55CC8B2D0E947D09CCCF302FD3
:1033C0003F70B32E802F807F803219F0B29480EF4F
:1033D000B822112321F1113009F46DC0CC2009F479
:1033E00076C0DD2009F448C020E0D7014C91119649
:1033F0005C91119712966C91129713967C9113978A
:1034000014968C910E94650F8091050481FD8BCFED
:10341000F701858180FF87CF8F7085832DC0CC20F9
:1034200069F1D11006C08091EC018B290E94900BAC
:1034300094CF41E0D41213C08091F10182FD8DCF71
:103440008091EC01B82AB81609F487CF0E940E05C6
:103450009093EB018093EA01B092EC017ECF8091D2
:103460000404823000F3D812DECF0E9472098091EA
:10347000E501B812B092E5018B2DD8CFD11006C06E
:103480000E9472098B2D0E94890B67CF80910404E2
:1034900051E0D5120BC0823008F45FCF8091340325
:1034A0008B2109F45ACF0E94510AEACF823040F3AF
:1034B000D812E6CF52CFCC2029F085E08D1508F444
:1034C0004CCFDACF94E09D1508F447CFDBCFDD2059
:1034D000C9F28091080490910904193321F0809178
:1034E0000604909107040E94E10C812F0E949A0B20
:1034F00034CF802F86958695837069F0813009F0EE
:103500002CCF812F902F9370C11002C090E080E0EB
:103510000E94340522CF812F902F9370C11002C0DA
:1035200090E080E00E944A0518CF812FCC2039F02E
:103530000E9426070E94E4050E94E4050ECF0E9427
:103540000B06FACF802F837091F5C11006CF412F63
:10355000429546954770440F440F812F8F70042E7B
:1035600001C0880F0A94EAF7212F207114FF07C0C9
:103570002FE030E001C0220F4A95EAF72095302F66
:10358000369536953370323069F050F44091200210
:10359000313029F0822B84230E94740BDECE842BE1
:1035A000822BFACF282B809120028227F5CF869597
:1035B000CC2011F0802F8170882309F4CECE412FCA
:1035C000429546954770440F440F812F8F70042E0B
:1035D00001C0880F0A94EAF7212F207114FF07C059
:1035E0002FE030E001C0220F4A95EAF72095302FF6
:1035F000369536953370323069F050F4409133048B
:10360000313029F0822B84230E941C0BA6CE842B00
:10361000822BFACF282B809133048227F5CFF02F0D
:10362000FF70BF2ECC2029F08F2F0E94530B812FCB
:10363000FDCE812F0E94890B8B2D0E942B0B8DCEEE
:10364000123F09F44AC060F4103F41F1113FE9F123
:10365000CC2009F48DC0D11066CE802F8F713AC076
:10366000133F09F43FC0143F99F72091040422301E
:1036700008F466C08091E501CC2009F44EC00E9498
:1036800084098091E80187708430C1F50E948B091C
:10369000802F8F710E942B0BA12C5FCECC2081F04C
:1036A00024E02D1508F459CE202F2F7181E090E0F1
:1036B00001C0880F2A95EAF7909133048927A4CF97
:1036C00035E03D1508F449CEEFCF802F8F71CC2027
:1036D00009F4B3CF0E94530B40CE802F8F71CC20C2
:1036E000C9F3ABCF80E0CC2009F48ECF81E0902FDE
:1036F0009F7101C0880F9A95EAF786CF80910404E4
:10370000D81650F6402F4F71B42E842F0E94530BC1
:1037100063E08B2D0E945E0BBFCF90913403982BFA
:1037200090933403D21640F00E948B090E94510AF4
:1037300064E0802F8F71EECF81E00E94370BACCF19
:10374000CC2059F0502F5F71B52E852F0E94530B5E
:1037500063E08B2D0E945E0B00CE81E00E94370B50
:1037600081E08D1508F0F9CD82E00E94370BF5CD90
:10377000D110AFCE802F8F7160CFCC2019F0D11037
:10378000F9CDFCCDD110F6CD20E0F701408151817B
:103790006281738184810E94650F8091050483FF9B
:1037A000E9CD80918D0190918E01029709F0E2CDD3
:1037B000812F0E944B0DDECD0031BFE51B0709F4C0
:1037C000D0CA0131EFE51E0709F4D5CA680127E523
:1037D000D21A882309F4D1CA3FEFC316D10409F0E5
:1037E00008F4FDCA8091030480FF36C00E940E05D4
:1037F0006C01D70112968C91882311F180911601EA
:1038000082FF06C040E0B60190E080E00E94EB0C31
:1038100082E00E947D090B31BCE51B0709F44DCB0A
:103820000C31ECE51E0709F49ACB90911601892F13
:103830008E7F90FF81600A31FCE51F0709F492CB6F
:103840000832110508F094CB0E31110508F0D6CBE3
:103850000430110508F09FCB033FFCE51F0709F476
:1038600005CC08F0EDCB083D3CE5130709F4F8CB97
:10387000093D4CE5140709F40BCC073D5CE5150741
:1038800009F020CB06E221EE41EE67ED7CE5C701B1
:103890000E946C0DD9C906311C4509F044C08091C5
:1038A0003403982F9A7A2091020420FF04C0482FF5
:1038B000447409F090E021FF04C0482F417109F0E1
:1038C00090E022FF04C0482F487809F090E023FFE1
:1038D00003C0827209F090E0332309F4B8CC81E090
:1038E000911101C080E080938C0169E2911165E340
:1038F00084E891E00E941A050E94AC09A5C906312E
:103900005CE5150761F20A355DE5150709F4D6CCCB
:1039100008F0B2CC01159CE5190709F4BFCC0E3DA7
:103920001C4509F4C8CCF70186819781009709F4FA
:10393000C9CC0E94EA07182F092FF701C280D58051
:10394000D2943FE0D3228091E8018770A1F0AC2CA3
:10395000CC2091F0892F807F803421F080E2810F8C
:10396000883048F082E00E94370B8091E801877030
:10397000AA24A3948111A12C902E92942FE092223C
:10398000FBE0F91508F4E9CCE92DF0E0EF5AFF4C23
:103990000C94AA2FCF92DF92EF92FF920F931F9376
:1039A000CF93DF938091A001807F31F480919D01BE
:1039B000C091E40181110BC0DF91CF911F910F9154
:1039C000FF90EF90DF90CF9008952196C77080917F
:1039D000A3018C1789F3F0909B01E0909C01C090AB
:1039E0009E01D0909F01A6016E2D8F2D0E946C0527
:1039F000D0E08111EACF8E0183E0000F111F8A957C
:103A0000E1F7F801EC55FE4F81818E11DECF808108
:103A10008F11DBCF82818111D8CFE380F480EC1845
:103A2000FD0860E08BE991E00E948E0F8091000418
:103A300090910104E816F90640F68091A0018F707C
:103A400080618093A001F801E755FE4F80818F705F
:103A5000806180838BE991E00E949E15DF91CF9178
:103A60001F910F91FF90EF90DF90CF900C94770A09
:103A70005F926F927F928F929F92AF92BF92CF92FE
:103A8000DF92EF92FF920F931F93CF93DF93CDB707
:103A9000DEB765970FB6F894DEBF0FBECDBF8C01C1
:103AA00085E0F801DE01519601900D928A95E1F7CB
:103AB000D8011296EC908BE9A82E81E0B82E809068
:103AC0009E0190909F01A40160919C0180919B01B7
:103AD0000E946C058111EAC1F801C380D480F09086
:103AE0009D01C601881999094C01FF2009F47AC18A
:103AF0005080618060E0C5010E948E0F80910004BB
:103B0000909101047090A0018816990608F01DC1DB
:103B100040919E0150919F01B0909B01A0909C010B
:103B2000872D807F6A2D09F0B7C08B2D0E946C0510
:103B3000FE2C811139C0D80111968C9111978A11F0
:103B400033C08C918B1130C02091A1013091A20122
:103B500016968D919C912817390731F5E11024C0F4
:103B6000872D8F7080618093A0018BE991E00E9486
:103B70009E158091A001F80185838F2D65960FB663
:103B8000F894DEBF0FBECDBFDF91CF911F910F9193
:103B9000FF90EF90DF90CF90BF90AF909F908F906D
:103BA0007F906F905F90089560E08BE991E00E94B4
:103BB0008E0F8091000490910104843F9140F8F0B1
:103BC000A601662D852D0E946C0581114CC081E0F7
:103BD0008E2580FF1DC04E2D662D852D0E94570A13
:103BE0008823B1F08BE991E00E949E1588E0EBE913
:103BF000F1E0DF011D928A95E9F7F12CBECF60E07C
:103C00008BE991E00E948E0F8091050480FDD8CF52
:103C1000A601662D852D0E946C05811126C081E0CC
:103C20008E25B82FB170CB2E80FF2DC04E2D662D66
:103C3000852D0E94570AD82E811125C0598A6A8A7B
:103C400089899A890E944B0F292F22952F70223043
:103C500070F0243098F49F7071F0F8019581907F96
:103C600051F4FD2C8ACF80E0B4CF80E0DACF9F7092
:103C700011F08823B1F3805E883098F3C8010E9468
:103C80009E15DC2CEECFEE2009F477CF8091A001B9
:103C900081608093A001B1CF8B2D0E946C058111B2
:103CA00024C0D80111968C9111978A111EC08C9155
:103CB0008B111BC02091A1013091A20116968D910C
:103CC0009C9117972817390781F4E1100EC01596BB
:103CD0007C92C8010E949E1588E0F801ABE9B1E032
:103CE00001900D928A95E1F748CFC8010E94570FC5
:103CF000882339F1EE2029F18091A0018032A0F0D3
:103D000020919B0130919C013A8729871B86DD8693
:103D1000CC868E878091A1019091A201988B8F878C
:103D2000CE0109960E949E1588E0F801ABE9B1E04A
:103D300001900D928A95E1F70E94CA1CFF24F3942A
:103D40001CCFC8010E949E15F9CF872D807F09F4F2
:103D500049CF90909B0180909C0140919E01509191
:103D60009F01682D892D0E946C0581111CC0F801EE
:103D70008181881118C08081891115C02091A1010D
:103D80003091A201868197812817390761F4E110EB
:103D90000AC07582C8010E949E1588E0D5011D9257
:103DA0008A95E9F7EACEC8010E94570F882349F2A5
:103DB000EE2039F28091A001803208F4B5CF209135
:103DC0009B0130919C013A8329831B82DD82CC8246
:103DD0008E838091A1019091A20198878F83CE015B
:103DE0000196A0CF60E08BE991E00E948E0F809158
:103DF0000004909101048816990608F051C0FE2C29
:103E0000EE2009F49ECFE0909B01D0909C01409160
:103E10009E0150919F016D2D8E2D0E946C05811188
:103E200031C0F80181818D112DC080818E112AC091
:103E30002091A1013091A20186819781281739072D
:103E400009F560E08BE991E00E948E0F80910504F6
:103E500082FD42CF9091A00190FD3ECF907F09F46A
:103E60003BCF8091A001D80115968C931597903F78
:103E700009F42FCF982F907F905F8F70892B159624
:103E80008C9327CFC8010E94570F81114DCF80918D
:103E9000A00181608093A001C8010E949E156DCE93
:103EA00088E0F50111928A95E9F767CEEE2009F4D2
:103EB00048CFC8010E94570FF82E882309F441CF3C
:103EC00088E0F801ABE9B1E001900D928A95E1F745
:103ED00080919B0190919C010E944B0F0E94CA1CF3
:103EE0004CCECF93DF93CDB7DEB760970FB6F89483
:103EF000DEBF0FBECDBF29873A874B875C876D87B2
:103F00007E878F87988BCE0109960E94381D81117C
:103F10002FC088E0FE013996DE01119601900D92C6
:103F20008A95E1F74C855D856A8589850E946C05D7
:103F300081111EC0A091A301B0E0CD010196877050
:103F400099272091E4012817190609F193E0AA0F97
:103F5000BB1F9A95E1F7AC55BE4F98E0FE01319634
:103F600001900D929A95E1F78093A3010E94770A40
:103F70008091E4019091A301891317C060960FB658
:103F8000F894DEBF0FBECDBFDF91CF9108950E94A0
:103F900057121092A3011092E40188E0EBE9F1E0DE
:103FA000DF011D928A95E9F7E3CFB8E08B9FC0014E
:103FB00011248C559E4F0E94381D8823F9F2809160
:103FC000E40190E00196877099278093E401D0CFB7
:103FD000EF92FF920F931F93CF93DF9380918F0205
:103FE000882361F0C0918E028CE0F82E80918F02C0
:103FF000C81758F010928F0210928E02DF91CF9165
:104000001F910F91FF90EF900895EE24E394EC0E32
:10401000E0928E020C2F10E0CF9DE0011124C057DA
:10402000DD4F4B815C81698188810E946C05811123
:104030001BC08E819F81892B21F4888599850196EB
:1040400051F4288139814A815B816C817D818E8127
:104050009F810E94711FF09EF001F19EF00D1124CE
:10406000E057FD4F14821382CE2DC0CF1092330340
:104070001092320310921301809131038093300328
:104080000E94A5050C94E81F3F924F925F926F9299
:104090007F928F929F92AF92BF92CF92DF92EF92D8
:1040A000FF920F931F93CF93DF93C091300397E05C
:1040B000892E01E010E02CE0322E3EEF932E4424B6
:1040C0004394809131038C1315C00E94E81FDF9147
:1040D000CF911F910F91FF90EF90DF90CF90BF9005
:1040E000AF909F908F907F906F905F904F903F9098
:1040F0000C94A505D0E0FE01EE0FFF1FE85DFC4F1C
:1041000080819181889ED001899EB00D1124A0519B
:10411000BD4F14962C911497211157C050908F02C7
:10412000E0E9F2E030E020E0712C5D01251508F0B7
:104130004AC0E284F384D501CD90DC906FEF7FEF2D
:10414000612C462D50E0DA01AA0FBB1FAC0DBD1D3E
:104150000D90BC91A02D109731F0EA16FB0609F4E2
:10416000BA016394EECF6F3F7607A1F1D80102C088
:10417000AA0FBB1F6A95E2F77A2AB80102C0660F40
:10418000771F6A94E2F7AB01415051097416150686
:10419000F9F4329EF001339EF00D1124E057FD4FEB
:1041A000889ED001899EB00D1124A051BD4F12965A
:1041B0002D913C911397378326839082918291872A
:1041C000808715964C920E9477052196C37079CF0F
:1041D000148213822F5F3F4F3C96A8CF9F92AF92DD
:1041E000BF92CF92DF92EF92FF920F931F93CF93E4
:1041F000DF9300D000D00F92CDB7DEB78E010F5FF6
:104200001F4F85E0F80111928A95E9F781E5C82EE4
:1042100081E0D82EF12CE12CAA24A394B12CF60134
:1042200081916F018F3F09F449C0F894E82FE2951E
:10423000EF70F0E021A18F70A50102C0440F551F5F
:104240008A95E2F7CA01922F982B91A392A18095AB
:10425000892382A3789400C0E6E5F1E030E020E015
:10426000912C41914F3F09F46FC0A42FA295AF70DC
:10427000B0E090968C9190E04F7002C09595879534
:104280004A95E2F780FD60C08A2D022E01C0880F9A
:104290000A94EAF7982A2F5F3F4F2530310509F736
:1042A000F601319780818F3F11F00E94900750EA0C
:1042B0005A95F1F7F801EE0DFF1D90828FEFE81A85
:1042C000F80AE5E0EE16F10409F0A9CF45E050E068
:1042D000B80182EF91E00E94C02FDD24D3940097B3
:1042E00009F4D12C892B91F185E0F801A2EFB1E01E
:1042F00001900D928A95E1F781E08093EF010E9491
:104300000E059093EE018093ED018091ED01909167
:10431000EE010E94FF040597E8F08091F20180937E
:104320000E028091F30180930F028091F40180933B
:1043300010028091F501809311028091F601809323
:1043400012021092EF0106C080E0A4CF8091EF012D
:104350008111DBCF8091000110E006E18F3F09F071
:1043600065C08091130181116CC08091030480FFAE
:104370001CC08091160182FF18C00E940E0520917A
:104380000C0430910D04AC01421B530B209114011D
:10439000309115014217530740F041E0BC01809174
:1043A0000A0490910B040E94EB0C8D2D0F900F903E
:1043B0000F900F900F90DF91CF911F910F91FF9071
:1043C000EF90DF90CF90BF90AF909F900895029FA5
:1043D000F001039FF00D1124E95CFC4FE288F388A3
:1043E000E114F10421F4E0900004F0900104029F34
:1043F000F001039FF00D1124E95CFC4F86818823B6
:10440000A1F0858596850E94FF04E816F90668F4F8
:10441000109F70011124C701895C9C4F0E942D0AD6
:10442000C701835C9C4F0E94E8091F5F212F30E089
:1044300080910001082E000C990B821793073CF61F
:1044400090CF8091320390913303009709F48DCF80
:104450000E94FF0420918C0230918D0228173907A9
:1044600008F083CF9091300380913103981759F071
:104470000E94442010928D0210928C0210923303FD
:104480001092320372CF0E94E81F109233031092F1
:1044900032030E94A50569CF2F923F924F925F92FF
:1044A0006F927F928F929F92AF92BF92CF92DF9244
:1044B000EF92FF920F931F93CF93DF93CDB7DEB7A9
:1044C00069970FB6F894DEBF0FBECDBF942F498B0E
:1044D000252F5A8B6B8B7C8B8D8B4C895D89622F42
:1044E000892F0E946C05811109C080918D019091E6
:1044F0008E01019690938E0180938D018B8981119D
:104500001092E7031D861E861F86188A85E0FE012D
:104510007196DE01199601900D928A95E1F78091CE
:10452000EA039091EB03892BC1F00E940E052091C4
:10453000E6013091E701821B930B2091EA03309151
:10454000EB038217930720F08091E80182FFF5C109
:104550000E94920981110E9472094C855D856A85CD
:1045600089850E946C05811111C061E0CE01099618
:104570000E948E0F6C018B8527EFC2162CE5D206A8
:1045800081F4882321F181E08093130129853A8504
:104590004B855C856D857E858F8598890E94711F0E
:1045A000C5C038EFC3163CE5D30629F4882379F05B
:1045B0000E943620EBCF49EFC4164CE5D40639F4FF
:1045C000882329F0809113018111F2CFDCCF00EF15
:1045D00012E0512CB12CA12C22242394312C2EEF4B
:1045E000422EF8014081518188248A94982C20E041
:1045F000822F90E0FC01EE0FFF1FE40FF51F60819A
:1046000071816115710531F0C616D70609F44C01A8
:104610002F5FEECFF12CFFEF8F169F0609F448C0F5
:10462000F8014481F09013018F2D411180E0F82FA3
:10463000F170FF2EF801E58086819B85992309F4AE
:104640000CC1FF2009F409C16090FE037090FF03C4
:10465000E11012C0A10101C0440F8A94EAF7842B33
:10466000868380918C0290918D028615970520F4A7
:1046700070928D0260928C02C10102C0880F991F56
:104680002A95E2F70197F80126812817190681F487
:104690008091320390913303009709F460C00E9427
:1046A000FF046816790608F05AC021E0F801248357
:1046B0005F28FFEFAF1ABF0A095F1F4F28E0A2165D
:1046C000B10409F08ECF8B85882309F421C15520D0
:1046D00009F41EC10E940E059093330380933203A8
:1046E00080918F02883010F591E0980F90938F029F
:1046F00098E0FE013996DE01119601900D929A958F
:10470000E1F73CE0839FC001112480579D4F28E0D2
:10471000FE013196DC0101900D922A95E1F72FEF11
:104720003FEFFC0131872087D386C28669960FB69A
:10473000F894DEBF0FBECDBFDF91CF911F910F91D7
:10474000FF90EF90DF90CF90BF90AF909F908F90B1
:104750007F906F905F904F903F902F900895809141
:10476000300350913103982FF0E0E0E0851314C03E
:1047700090933003E017F10709F49ACF90E0FC0121
:10478000EE0FFF1FE85DFC4FB182A082019683709F
:104790009927809331038CCF682E712CF301EE0F93
:1047A000FF1FE85DFC4F2081318147E0429FD0012F
:1047B000439FB00D1124A051BD4F6D917C91119775
:1047C000798F688F40E020E030E0E32FF0E0EE0FDB
:1047D000FF1F688D798DE60FF71F8080918081140F
:1047E0009104E1F0F8010190F081E02DFF8BEE8B58
:1047F00020E005C08616970609F44F2D2F5FE22FA3
:10480000F0E0EE0FFF1F6E897F89E60FF71F6081D2
:1048100071816115710571F73F5FD7CF4423D1F0E6
:10482000F801231708F0FD0121E024830E171F076C
:1048300021F490933003F42E3BCF981305C0AE17AC
:10484000BF0711F49F5F937093012F5F3F4F822F3B
:1048500083708CCFF0E0E0E0F7CF90E0E1101FC074
:10486000B10102C0660F771F2A95E2F79B01215024
:1048700031098217930731F4442309F447C0C50175
:104880000E947705C10101C0880F8A94EAF7982F2A
:104890009095F801868189238683FE2C09CF9C019F
:1048A000082C02C0359527950A94E2F7A9014170BA
:1048B0005527BC016150710986239723892B11F577
:1048C000452B01F1F80182819381892BC1F01B8274
:1048D0001C821D821E8249824A820E940E058160CE
:1048E000582F9D838C83F801828193818F839887D1
:1048F00029813A814B816D817E810E94711FF8016F
:104900001582C0CFF22FF170EF2EBCCFEF2CBACFB3
:104910009091300380913103981731F00E94442028
:10492000552009F433CE02CF0E94E81F10923303C2
:10493000109232030E94A505F3CF82E00E94370B4C
:1049400007CE0F931F93CF93DF9300D000D00F9229
:10495000CDB7DEB78C019093860280938502011556
:1049600080E2180720F5802F0E949A0BC8010E9450
:10497000300C9801205E31092830310510F0012BF0
:1049800059F40F900F900F900F900F90DF91CF91EF
:104990001F910F910C94890B0F900F900F900F9017
:1049A0000F90DF91CF911F910F910C94780B8EEFA8
:1049B00089838A831B820E940E058160782F9D83E4
:1049C0008C8349815A816B818D810F900F900F905C
:1049D0000F900F90DF91CF911F910F910C944C226B
:1049E0000F931F93CF93DF938C01EB0169E272E089
:1049F0008C2F0E949411892BA1F480910604909130
:104A000007040E94E10CDD27CF5DDD4F8881F801AE
:104A100010821882833009F148F4813059F08230D5
:104A200081F0DF91CF911F910F9108958430D1F0E3
:104A30008530B9F78091290290912A02009789F375
:104A400006C080912B0290912C02009799F3DF9180
:104A5000CF911F910F910C94A12480912D029091E0
:104A60002E02F3CF80912F0290913002009779F7B8
:104A70002091290230912A0280912B0290912C02E0
:104A800021153105D9F2009711F7C901E0CF0F9335
:104A90001F93CF93DF9300D000D00F92CDB7DEB736
:104AA0008C019093860280938502011580E218079D
:104AB000E8F4C8010E94300C9801205E31092830CA
:104AC000310518F00115110571F40E94900B802F2B
:104AD0000F900F900F900F900F90DF91CF911F913B
:104AE0000F910C94D30B0E947F0BF1CF8EEF898333
:104AF0008A8381E08B830E940E058160782F9D83DD
:104B00008C8349815A816B818D810F900F900F901A
:104B10000F900F90DF91CF911F910F910C944C2229
:104B2000AF92BF92CF92DF92EF92FF920F931F93BB
:104B3000CF93DF93B82EA62EC0903304809120022D
:104B4000C82AC7E0D0E0D12CF12CE12CD701C60156
:104B50000C2E04C0B695A795979587950A94D2F721
:104B600080FF20C04A2D6B2D8C2F0E94A10E8C013E
:104B700081309105B9F00E9447258FE39CE90197A8
:104B8000F1F700C00000C8010E94A12481E0DF917C
:104B9000CF911F910F91FF90EF90DF90CF90BF903A
:104BA000AF900895219790F64A2D6B2D80E00E94DA
:104BB000A10EEC010E9447258FE39CE90197F1F7D4
:104BC00000C00000CE01E0CFCF93DF93EC010E9444
:104BD000472580910604909107040E94E10CCE01C4
:104BE000DF91CF910C94A1240F931F93CF93DF9368
:104BF0008C01862F69E272E00E949411892BC9F41E
:104C0000C0912902D0912A02209799F0F801808161
:104C1000833069F4CE010E94E425CE010E94E42590
:104C2000CE01DF91CF911F910F910C94E425843038
:104C3000B8F7DF91CF911F910F9108950F931F93B4
:104C4000CF93DF938C01EB0169E272E08C2F0E941D
:104C50009411892B09F064C0FE01FF27D8018C91C3
:104C6000EF5DFD4F8130D9F419969C9119979923E6
:104C700011F080830CC01A969C919923D1F382E0A5
:104C8000808380912B0290912C020097D9F480911F
:104C9000290290912A02009709F442C013C0823081
:104CA000E9F519968C91199781112DC01A968C915E
:104CB00081110EC083E0808380912D0290912E029D
:104CC000009719F1DF91CF911F910F910C94472517
:104CD00084E0808380912F0290913002009791F7B9
:104CE0008091290290912A020097F9F00E94E42510
:104CF00080912B0290912C02009721F7809129023C
:104D000090912A02DFCF85E08083809129029091E3
:104D10002A02009729F00E94E425F0CF86E08083E4
:104D2000DF91CF911F910F91089580912B02909167
:104D30002C02B1CF1F920F920FB60F9211242F9316
:104D40003F934F935F936F937F938F939F93AF9313
:104D5000BF93CF93DF93EF93FF93D091E900DF7080
:104D60008091EC00C82FC17080FDC0E81092E9006E
:104D70008091F000877F8093F00078940E94621207
:104D80001092E9008091F00088608093F000CD2BB4
:104D9000CF70C093E900FF91EF91DF91CF91BF9168
:104DA000AF919F918F917F916F915F914F913F91C3
:104DB0002F910F900FBE0F901F9018951F920F927A
:104DC0000FB60F9211242F933F934F935F936F93DE
:104DD0007F938F939F93AF93BF93EF93FF938091B4
:104DE000E10082FF09C08091E20082FF05C080914E
:104DF000E1008B7F8093E1008091DA0080FF24C086
:104E00008091D80080FF20C08091DA008E7F80934F
:104E1000DA008091D90080FF9BC080E189BD82E1EA
:104E200089BD09B400FEFDCF81E0809332048091FA
:104E30001C04811109C00E9439030E942C04809136
:104E4000E20084608093E2008091E10080FF17C05F
:104E50008091E20080FF13C08091E2008E7F8093FA
:104E6000E2008091E20080618093E2008091D800AE
:104E700080628093D80019BC85E0809332048091D1
:104E8000E10084FF29C08091E20084FF25C080E119
:104E900089BD82E189BD89B5982F917080FFFBCFD4
:104EA0008091D8008F7D8093D8008091E1008F7E23
:104EB0008093E1008091E2008F7E8093E2008091F8
:104EC000E20081608093E20080912904882309F444
:104ED00045C084E0809332048091E10083FF27C0C5
:104EE0008091E20083FF23C08091E100877F80935F
:104EF000E10082E080933204109229048091E10065
:104F00008E7F8093E1008091E2008E7F8093E200AB
:104F10008091E20080618093E20042E060E080E006
:104F20000E94FA038091F00088608093F000FF9166
:104F3000EF91BF91AF919F918F917F916F915F9111
:104F40004F913F912F910F900FBE0F901F9018958A
:104F500019BC1092320410921C0476CF8091E300A9
:104F600087FD93E090933204B7CF78941F921FB6D9
:104F70001F9211248F939F93AF93BF938091150439
:104F800090911604A0911704B09118040196A11DE8
:104F9000B11D8093150490931604A0931704B09349
:104FA0001804BF91AF919F918F911F901FBE1F90CA
:104FB00018951F921FB61F9211248F939F93AF9342
:104FC000BF9380911404811113C0809115049091B6
:104FD0001604A0911704B09118044196A11DB11DAB
:104FE0008093150490931604A0931704B0931804AB
:104FF000BF91AF919F918F911F901FBE1F901895E9
:10500000CDB7DEB7E5970FB6F894DEBF0FBECDBFC4
:1050100084B7877F84BF0FB6F894A895809160000D
:10502000886180936000109260000FBE80E890E07D
:105030000FB6F89480936100909361000FBE85B71E
:10504000806885BF85B7806885BF8EE897E09093BC
:105050008301809382010E94A8110E94FE110E9488
:105060007B0E0E9439030E942C048091E200846030
:105070008093E2007894809132048823A1F010910B
:10508000E9001F709091EC00892F817090FD80E8FD
:10509000182B1092E9008091E80083FD0E946212B3
:1050A0001F701093E90082E084BD93E095BD9AEFF4
:1050B00097BD80936E000E949C0F811102C00E94D8
:1050C000851101E511E0D8018D918D018F3F11F01F
:1050D0000E949007B1E006351B07A9F706E511E02D
:1050E0008BE5E82E81E0F82EF80181918F018F3F4A
:1050F00011F00E949007E016F106B1F71092F2014C
:1051000010920E021092F30110920F021092F4010D
:10511000109210021092F501109211021092F601F5
:105120001092120290E080E00E94F52F8A3E9E4F7E
:1051300021F40E949C0F811102C00E94341582E06C
:1051400090E00E94ED2F809304020E94B50F90938F
:10515000F1018093F0010E94EE208FE39CE901971A
:10516000F1F700C000000E94EE2080910E0280FF47
:1051700008C06FEF7FEF90E080E00E9419300E943E
:10518000EE0483E090E00E94ED2F0E94740B55988E
:105190005D982098289863E771E00FEF802E01E07A
:1051A000902E2BE631E0EFE6F1E041E050E0119186
:1051B000812F82958F7090E0DC019196FC90919701
:1051C0001F70E12E6A0101C0CC0C1A95EAF70C2D74
:1051D00000950F2191960C93919792961C9192971E
:1051E0001C2992961C93D901FD909D010F2D0295CB
:1051F0000F7010E0D8019196BC90BF2DBF70FB2EB0
:105200006A0101C0CC0CBA95EAF7DC2CD094DB2003
:10521000D8019196DC9291979296DC909297DC2837
:105220009296DC92DC0190968C9190E002C095956C
:105230008795EA94E2F78170D80190960C9110E07E
:1052400002C015950795FA94E2F790E000FD92E010
:10525000892BD4018D934D016E177F0709F0A7CFDD
:1052600081E091E090931104809310048EE092E02D
:10527000B5E0B80FBDAB8091320410E4F12E00E12F
:1052800012E1853009F4A1C10E94EE20882359F073
:105290008FB7F8944091150450911604609117044B
:1052A000709118048FBFAEE0B2E0E5E0F2E010E0EC
:1052B00000E0302F8D919191981709F495C1292F15
:1052C000282790E0FF24F3944F2D422309F487C14F
:1052D0009BA73CA78F2191E009F490E09DA70E9435
:1052E0000E058160782F9FA78EA74BA55CA56DA5A5
:1052F0008FA50E944C22F801EB5FFD4F8081F826BC
:10530000F0827BEFE72E71E0F72E07EF11E0EBE67E
:10531000AE2EE1E0BE2EFFE68F2EF1E09F2EAFEF26
:10532000CA2EA1E0DA2E512C412CB4E06B2E712C48
:10533000D601ED916D01EE0FEE0FD4018D914D016F
:10534000A82FA295AF70B0E090962C9130E08F70AE
:1053500002C0359527958A95E2F721703327D5014C
:105360004D915D01A42FA295AF70B0E090968C9105
:1053700090E04F7002C0959587954A95E2F7AC0191
:105380004170552780FF02C042E050E0242BE22B01
:10539000D6011197EC93EF70F0E0E55AFE4F808153
:1053A000F7019081890F808320E084304CF0D80190
:1053B0008C918F5F8C9360E0852D0E94902521E079
:1053C000F70180818D3F4CF4D8018C9181508C93F2
:1053D00061E0852D0E94902521E0F7018081082E53
:1053E000000C990BB3010E94962FD7018D937D017C
:1053F000422A53940F5F1F4FB4E05B1299CF4420B1
:1054000059F08FB7F89440911504509116046091AB
:105410001704709118048FBF86E0EAE1F2E08E0174
:105420000F5F1F4FD80101900D928A95E1F7C09050
:105430001C02D0901D02E0901E02F0901F021092FC
:105440001C0210921D0210921E0210921F028C2D3F
:105450008D2991F080911802909119020E94FF0409
:10546000AC0190911402992309F4D5C080911101E7
:105470008417150608F4DDC08E2D8F2991F08091D8
:105480001602909117020E94FF04AC019091130242
:10549000992309F40DC180910D018417150608F4B4
:1054A00015C180911C0290911D02892B90911E02C2
:1054B000892B90911F02892B11F00E94E40586E050
:1054C000F801AAE1B2E001900D928A95E1F70E94FD
:1054D000600590910302891721F00E946005809376
:1054E000030280913204843009F0C5CE83E08093BA
:1054F000E9008091E80082FFBECE8091E80090E054
:1055000085FF0AC00E94580360E2E62EF12C680174
:10551000882309F424C191E08091E8008B7780937F
:10552000E800992309F4A7CEE0908702F090880262
:105530008981E114F10409F420C18E3F09F0AAC168
:105540008A81833020F08550833008F0A3C1EA813E
:10555000EE3008F09FC1F0E0E35AFF4C0C94AA2F04
:1055600080913204843019F110921404E8E1F0E0E3
:105570000FB6F894A895E09360000FBEF09260001B
:1055800083B7817F846083BF83B7816083BF789452
:10559000889583B78E7F83BF0FB6F894A8958091C6
:1055A0006000886180936000109260000FBE80915F
:1055B0002804882351F00E94EE20EEE0F2E0819171
:1055C00081114AC42DA92E13FACF8091320485305F
:1055D00009F4C6CF0E9457120E94600555CE9F5F06
:1055E000FF0C953009F070CE0F5F1F4F053011058D
:1055F00009F05FCE8FEF88AB89AB1AAA0E940E0527
:105600008160782F9CAB8BAB48A959A96AA98CA95A
:105610000E944C2276CE20911201EAE02E9F90014A
:1056200011242417350708F027CF9F5F90931402A9
:1056300002C09F3FD1F7CC2059F00E94C7069FEFD0
:105640001C140CF491E0899F802D112480931C027E
:10565000DD2059F00E94C7069FEF1D140CF491E065
:10566000899F802D112480931D0230911C023323C9
:1056700009F402CF20911D02222309F4FDCE45EB4F
:105680003403C0011124992359F090931C0245EB77
:10569000240390011124332339F030931D02ECCE02
:1056A00081E080931C02F3CF81E080931D02E4CE61
:1056B00020910E018AE0289F9001112424173507BC
:1056C00008F0EFCE9F5F9093130202C09F3FD1F787
:1056D000EE2059F00E948E069FEF1E140CF491E00C
:1056E000899F802D112480931E02FF2059F00E9473
:1056F0008E069FEF1F140CF491E0899F802D1124DA
:1057000080931F0230911E02332309F4CACE2091E8
:105710001F02222309F4C5CE45EB3403C001112436
:10572000992359F090931E0245EB24039001112414
:10573000332339F030931F02B4CE81E080931E02F0
:10574000F3CF81E080931F02ACCE8091F100D601AF
:105750008D936D01B1E0EB1AF10809F4DCCE809174
:10576000E80085FDF2CF8091E8008B778093E80018
:105770000E945803882399F3CECE8C3009F4CCC014
:1057800048F5843009F4AFC050F4823009F468C0A1
:1057900008F09AC0813009F45FC08FEF89C386306A
:1057A00009F4B7C008F4AAC08B30B9F7809183021E
:1057B00090918402892B09F46DC0C8010E94B30343
:1057C000FFEF21EE34E0F15020403040E1F700C01F
:1057D0000000D5CC803109F4D0C090F58E3009F4AA
:1057E000A2C008F49CC08091830290918402892B0E
:1057F00009F450C0EC80F12C3DE1E316F10408F00F
:1058000049C0CA80DB80DC24CD24DC245801E00EB2
:10581000F11EC6018F509E4FEA14FB04D9F14FE0F0
:10582000C41642E0D40628F4D50114966C910E9467
:10583000FB2FBFEFAB1ABB0AEFEFCE1ADE0AE9CFA0
:10584000823109F49FC008F49BC0833109F4C2C0BF
:105850008E3F09F0A2CF7BCE1A8289E08B831AC0DB
:105860008A81823009F446C38330C1F0813009F067
:1058700094CF2FB7F894609115047091160480911D
:105880001704909118042FBF0E94B02F6B837C8364
:105890008D839E83C8010E94B303EDCC8091830267
:1058A00090918402892BB1F380910E028B838091B9
:1058B0000F028C83809110028D83809111028E8360
:1058C000809112028F83E6CF8A81823009F065CF02
:1058D0006B817C818D819E810E94B02F86E290E059
:1058E0000E94FB2FD7CF4C816B818A810E94D10E01
:1058F0009827892798279E838D83CCCF2D813E8141
:105900003227232732274C816B818A810E946A10BB
:10591000C1CF0E94D110BECF80E18A83BBCF82E08D
:105920008A838FE09BCFEC80F12CEDE1EE16F10441
:1059300008F0B0CFCA80DB80DC24CD24DC24580101
:10594000E00EF11EC6018F509E4FEA14FB0409F4CD
:10595000A1CFFFE0CF16F2E0DF0660F40E94ED2F4A
:10596000D50114968C93FFEFCF1ADF0A2FEFA21AFE
:10597000B20AE8CFF5011482F6CF0E9421108ACF37
:1059800084E0CBCFEC80F12CFDE1EF16F10408F0C0
:1059900081CFCA80DB80DC24CD24DC245801E00EDA
:1059A000F11EC6018796AE14BF0409F473CF28EC2C
:1059B000C216D10460F40E94ED2FD50114968C9389
:1059C000FFEFCF1ADF0A2FEFA21AB20AEACFF501D2
:1059D0001482F6CFCC80D12C3DE1C316D10408F05F
:1059E00059CFEA80FB80FE24EF24FE2448ECE41625
:1059F000F10408F04FCF88EC90E08E199F098C15C8
:105A00009D0508F447CF370187E2680E711C80912D
:105A100083029091840226014E0C5F1C892BA1F514
:105A2000570191E0A922BB24E0FE0DC0C701869674
:105A30000E94ED2F9D8189279827892781159C45F4
:105A400011F48FEF8D83460140FE17C0B1E08B1A31
:105A5000910855E0252E312C2C0E3D1E280C391CAA
:105A6000C3018C0D9D1D0E94ED2FF10190818115C8
:105A70009C4519F48FEFD1018C93F801EA0DFB1DC1
:105A80002FEFA814B90410F068011BC09481858120
:105A900081159C4511F42483258332E0A30EB11CAB
:105AA0003296EFCF48ECE416F10428F4D6011496B0
:105AB0006C910E94FB2FBFEFCB1ADB0AEFEFEE1ABF
:105AC000FE0AC70187964E145F0461F7E3CE88E0B3
:105AD000E8E1F1E0DE01919601900D928A95E1F7FF
